:1000000058C2000072C2000070C200000C94541369
:100010006CC200006AC2000068C2000066C2000034
:1000200064C2000062C200000C94352C5EC2000065
:100030005CC200005AC2000058C2000056C2000054
:1000400054C200000C94F11250C200004EC20000D5
:100050004CC2000065C5000048C2000046C2000056
:1000600044C200000C94EC1A0C94EC193EC200003F
:100070003CC200003AC2000038C2000036C2000094
:1000800034C2000032C2000030C200002EC20000A4
:100090002CC200002AC2000028C2000026C20000B4
:1000A00024C2000022C2000020C200004629782994
:1000B000632A7829632AC329EA29632A062A2E2A71
:1000C00041561842240962B82F431304654D09466E
:1000D0005B0B475E0B68BB0C69541F4B070C4C7DD8
:1000E000066C13094D9C0B6DF6285290085496240B
:1000F00074F00555880C759B15568D097686195731
:10010000D20858430E78DA03597F215AAF1E0000F7
:10011000002A03430055004C003400330033000034
:10012000002A03430055004C003800360038000018
:1001300000160353004800410000000403090409AD
:1001400002430002010080320904000001020201A2
:100150000005240001100524010301042402060502
:1001600024060001070582030800FF0904010002BC
:100170000A00000007050402400000070583024052
:1001800000001201100102000008EB034B200000E8
:1001900001020001202F2000203D2000072E050D28
:1001A000D391FF080500000C002165B02D3B132200
:1001B000F862073F181D1CC700B0876BF8B611EA3C
:1001C0002A001F41000D2E2D07D3913D043200005F
:1001D00006002165B055E43023B900070018146CFF
:1001E000070090876BF85611E92A001F41000003B1
:1001F0000F1E2627000000030F1E25363867000358
:100200000F256740605000030F275188838100034A
:100210000F2750C8C3C2002700000000000000677D
:1002200000000000000000500000000000000081FD
:1002300000000000000000C2000000000000504C60
:100240004C310D0A00504C4C300D0A005620312E16
:1002500036372043554C383638005620312E363745
:100260002043554C3433330043554C5F5633002004
:100270002F2000203D20004C4F56460D0A00424FD3
:1002800056460D0A004552523A4343410D0A000BAF
:1002900008105B11F81547191D1A1C1BC71C001DFF
:1002A000B221B623EA0007022E030D04E905CA07AE
:1002B0000C0B060D210E650FB010C811931203151B
:1002C000341733181819161B4321562500261129F7
:1002D000592C812D353EC3000D022D030106FF0769
:1002E0000008320B060D210E650FB0106A11831243
:1002F0001013221550181819161B431C401D91236A
:10030000E9242A2500261F3E504C454E4552520DE9
:100310000A004C4F56460D0A004C454E4552520DB0
:100320000A000007024604C605260B0610C81193F2
:10033000120313221534173F182819161B43215690
:10034000250026110D210E650FB0070C160720F8A9
:100350001E871F6B29592C812D353EC3FF000D2EA2
:100360002D07D3913D04320000060010B07155E412
:100370003023B900070018146C070090876BF856FB
:1003800011E92A001F41000D2E2D07D3913D0432A3
:100390000000060010ABA5550A3023B9000700186D
:1003A000146C070090876BF85611E92A001F410072
:1003B0004E2F4100454F420D0A004E2F41004E2F57
:1003C000410000535300547D7DFFFF4B4B7E7E0068
:1003D00020697320756E6B6E6F776E29205573657B
:1003E000206F6E65206F66003F2028004F46460054
:1003F0004F464600434D4F444500544D4F44450041
:10040000534D4F4445006E6F7420636F6D70696C7F
:10041000656420696E0D0A000454053D170000064E
:1004200002000B080C000D210E6B0FD0105C1104A4
:100430001206132214F80A00154421B622101818C7
:10044000192E1ABF1B431C091DB523EA242A2500B7
:10045000261F29592C812D352E0907040800090073
:1004600006FF3EC2FF047605961700000602000B49
:10047000080C000D210E650FB0106A114A12061308
:100480002214F80A00154721B622101818192E1A3E
:100490006D1B041C091DB223EA242A2500261F29EE
:1004A000592C812D352E0907040800090006FF3E4E
:1004B000C2FF11241FBECFEFDAE0DEBFCDBF11E0D7
:1004C000A0E0B1E0E4E9F9E602C005900D92AC3B92
:1004D000B107D9F729E0ACEBB1E001C01D92AC3710
:1004E000B207E1F70CD00C94C8348ACDF89481E0BF
:1004F00085BF82E085BFE0E0F8E3099508959FE0BD
:1005000088E10FB6F894A895809360000FBE909391
:10051000600090E080E80FB6F894809361009093BB
:1005200061000FBE2E9A2D9A04B603FE0AC083E323
:1005300090E0DCD5882329F060E083E390E0D1D51A
:10054000D5DF89EF87BD84E085BD82E084BD8093DF
:100550006E00109280008AE08093810084B7877FCC
:1005600084BF6E9A0E94C428C5D60E940A2C0E949D
:100570004F240E941D0E89E798E290930B0480930C
:100580000A040E94F51489E08093C00176980E94C5
:10059000E52C01D20E94421039D30E94ED150E9431
:1005A000E6160E94371E0E941E2E0E94E418EFCF0E
:1005B000292F33272230310559F02330310569F0D6
:1005C0002130310539F582E190E022E831E026C0A2
:1005D00083E490E02FE331E021C099278130910539
:1005E00039F018F0029751F015C0EBE3F1E002C0CA
:1005F000E1E3F1E0849190E09F0110C01E9B03C0F5
:1006000021E231E002C021E131E0E1E2F1E0849158
:1006100090E004C080E090E020E030E0FA01318317
:10062000208308958EBD0DB407FEFDCF8EB50895CD
:10063000EF92FF920F931F93CF93C82F8A3008F049
:10064000C8E028E0C29F800111248BE290E00B52A9
:100650001109FC01E00FF11FE251FE4F64917C0192
:100660002FEFE21AF20A3DD5C7018333910589F7CE
:10067000C550C53010F067E101C061E184E290E04F
:1006800030D5CF911F910F91FF90EF900895CF93A8
:10069000DF9382E090E0FC01ED53FE4F6491EC01AA
:1006A00021961FD5CE01AB97B1F787E390E0FC010F
:1006B000EB59FE4F6491EC01219613D5CE01C03663
:1006C000D105A9F71E9918C060E18FE090E009D527
:1006D00060EB80E190E005D561E781E190E001D534
:1006E00060E184E490E0FDD460EB85E490E0F9D42F
:1006F00061E786E490E0F5D489E09ADFDF91CF915D
:1007000008952898806C8EDF80E08CDF289A089509
:10071000CF93C62F2898806485DF8C2F83DF289A9B
:10072000CF91089528987EDF289A0895EF92FF923E
:100730000F931F93CF93DF93EC011092B602EA98C8
:10074000209A289A8EE190E036D328988EE190E0A6
:1007500032D3289A8DE290E02ED380E3E3DF84E663
:1007600090E029D3289880E45DDF8E01075D1F4F5C
:100770007E018FEFE81AF80ACE01B8D453DFE70103
:10078000E016F106A9F7289A28988EE74BDF8BE24E
:1007900090E0EC012196AAD445DFCE01E397C9F79A
:1007A000289A83E3BFDF81E00BD3CDB7DEB7E6E065
:1007B0000C947733A1E0B0E0E0EEF3E00C945F330B
:1007C00022E0298341E0BE016F5F7F4F01962CD468
:1007D00089812EDF82E090E0A9DF2196E2E00C948F
:1007E0007B33CF93EA9886E39DDFCFEF85E39ADFF3
:1007F000C1508077803229F08AE090E0DCD2C111CC
:10080000F5CFCF910895CF93CFEF84E38BDFC15025
:100810008077803129F08AE090E0CDD2C111F5CF08
:10082000EA9ACF910895A2E0B0E0E9E1F4E00C94F7
:100830005D338C01FC0181818737E9F441E0BE0121
:100840006F5F7F4FC8010296EFD3892BA1F041E083
:10085000BE016E5F7F4FC8010496E6D3892B59F025
:100860006A81898155DF83E35DDFCDDF8981D8D35C
:100870008A81D6D32CC041E0BE016E5F7F4FC80194
:100880000196D2D3892B21F18A81893969F410E04C
:10089000812F37DFC5D3812F8770873009F449D383
:1008A0001F5F1033A9F714C02CDF182F83E4F5D293
:1008B0008A81B6D388E991E02FD3812FB1D384E91F
:1008C00091E02AD340E262E0812F90E036D331D329
:1008D0002296E4E00C94793386E324DF10920C0432
:1008E00010926A021092B602089582E090E01EDF34
:1008F00081E080930C0410926A021092B60208956F
:100900000F931F93CF93DF93D82FC0E0062F10E0F3
:1009100085E3F7DE8D1731F0C8014DD2C150C1F724
:1009200081E001C080E0DF91CF911F910F91089588
:1009300085E2E7DE8F3311F080E0089586E3F2DE92
:100940008091BC01811104C085E492E0E5D202C02F
:100950008DE3E8DE83E3E6DE64E081E0D1DF85E27B
:10096000D0DE8F3349F78091BC01811103C08EE343
:1009700092E0D2D281E0089585E3C3DE8D3051F458
:1009800085E2BFDE8F3331F4D3DF84E3CBDE8077C3
:100990008031D9F708958091F005843009F069C05D
:1009A0008093E9008091BD0181112AC08091E80007
:1009B00085FF26C08091F2009091F300892B31F0E1
:1009C0006091F10089E695E0BDD4F4CF8091E80014
:1009D000982F9B7F9093E8008F778093E80081E0C9
:1009E0008093BD018BEC94E09093090480930804FC
:1009F000E0910A04F0910B0481E009951092BD0189
:100A000083E08093E9008091E804882391F180914C
:100A1000E80085FF2EC0F8948091E804882369F0EF
:100A20008091F2009091F3008034910530F486EECD
:100A300094E09ED48093F100EFCF78942091F2005F
:100A40003091F3008091E800982F9E7F9093E8000A
:100A50008F778093E8002034310559F40E94B82A3A
:100A60008091E800982F9E7F9093E8008F77809385
:100A7000E800089542E061EC82E00E946A2A42E3C5
:100A800061E883E00E946A2A42E360E884E00E9411
:100A90006A2A109200011092010110920201109234
:100AA000030108958091F1059091F205913229F0AA
:100AB000923261F1903299F512C0813A81F58091BC
:100AC000E800877F8093E80067E070E080E091E0D5
:100AD0000E94E32A8091E800982F9B7F11C0813209
:100AE000F1F48091E800877F8093E80067E070E090
:100AF00080E091E00E94882B8091E800982F9E7FF3
:100B00009093E8008F778093E8000895813239F45C
:100B10008091E800877F8093E8000C94942A0895E0
:100B20001F920F920FB60F9211248F939F93AF9342
:100B3000BF93EF93FF9380910E0490910F04A091C7
:100B40001004B09111040196A11DB11D80930E04F3
:100B500090930F04A0931004B093110480910D049E
:100B60008F5F80930D04E8EAF4E08081918118168C
:100B700019061CF4019791838083369684E0E03C4B
:100B8000F80799F78091C2049091C304009729F067
:100B900001979093C3048093C2048091D5048F3F42
:100BA00019F081508093D504FF91EF91BF91AF91DF
:100BB0009F918F910F900FBE0F901F901895FC0181
:100BC0009FB7F89440910E0450910F046091100467
:100BD0007091110440835183628373839FBF089592
:100BE000A4E0B0E0E6EFF5E00C945F33CE010196AF
:100BF000E6DF8C8115D28B8113D28A8111D2898153
:100C00000FD297D12496E2E00C947B330F931F937D
:100C1000CF9380910E0490910F04A0911004B09195
:100C200011042091BF01281709F463C080910E04BC
:100C300090910F04A0911004B09111048093BF0112
:100C4000A89508EA14E0C0E0F80180819181892B21
:100C500019F48C2F0E94BC26CF5F0A5F1F4FC4304F
:100C600099F78091C2049091C304892B11F40E94DA
:100C700017278091D504811102C00E9476278091A8
:100C80009B04882339F0815080939B04811102C01A
:100C90000E94811680910D048D3758F110920D0439
:100CA0008091070181FF04C09EB180E489278EB93D
:100CB00080911204909113048031FEE09F0728F484
:100CC000019690931304809312048091BE018F5F6C
:100CD0008C3319F08093BE010CC01092BE0180913C
:100CE000A7048F5F8C3318F48093A70402C010927E
:100CF000A704CF911F910F910895A0E0B0E0E3E821
:100D0000F6E00C9458338C016EE070E00E94A7343A
:100D10008D3009F04BC0769A8091B602882339F065
:100D20001092B6028AEA91E0AED7D1E001C0D0E0DD
:100D300080910C04811101C0D8DD53DDC4E068014D
:100D40008DE0C80ED11C5B9A88EE93E034D0780118
:100D5000EFEFEE1AFE0AF701B1907F015B98F1E325
:100D6000BF1619F080ED97E002C088EE93E023D023
:100D70005B9A81E3B81619F088EE93E002C080ED2B
:100D800097E019D0EC14FD0431F75B9883E218D09A
:100D9000C150C9F680911504882311F034DD02C0DA
:100DA00086E3C0DCD1110E94501C7698CDB7DEB727
:100DB000E9E00C947433880F991F0197F1F70895B7
:100DC00020ED37E0815020F0F9013197F1F7FACFAB
:100DD0000895CF93DF93EC018B81843509F05AC0DD
:100DE000FE0133962881DE0150964DE0421748F00F
:100DF00050E030E0C9010F974817590709F04AC081
:100E000005C08D918B33A1F34F5FF0CFD9011E97B1
:100E1000AE0FBF1F8C918435E9F59C8111968C91A2
:100E20001197981337C09D8112968C911297981341
:100E300031C09E8113968C91139798132BC09F817C
:100E400014968C911497981325C021513109E20F03
:100E5000F31F15968C911597808316968C91169793
:100E6000818319968C91199782831A968C911A977F
:100E700083831B968C911B9784831C968C911C9763
:100E800085831D968C91868398819A5098839A8148
:100E90009A509A83DF91CF910895CF93C82F809174
:100EA000F005843079F48091C00180FF0BC08091FF
:100EB000E80487FD70DD6C2F86EE94E043D2CA30E3
:100EC00009F469DD8091A4048823C9F08091C001F0
:100ED00083FF15C0CA3099F0CD3011F06C2F01C0DE
:100EE0006BE388E194E02ED2CD3019F488E194E0F0
:100EF00070DF83E080939B0482E08093A304CF9112
:100F00000895CF93DF93EC018991882311F0C5DF19
:100F1000FBCFDF91CF910895CF93DF93EC01FE01DA
:100F20008491882319F0B9DF2196F9CFDF91CF9111
:100F300008958DE0B2DF8AE0B0CFA6E0B0E0E3EA4A
:100F4000F7E00C945D33362F1E8225E0EAE0F0E0F6
:100F5000215001E010E00C0F1D1F020F111DBF01F9
:100F60000E942233805DD8018C93CB0131500097D1
:100F700069F02111EDCF0AC0222359F02150E1E0A0
:100F8000F0E0EC0FFD1FE20FF11D4083315037FF01
:100F9000F3CF81E090E08C0F9D1F820F911DB1DF98
:100FA0002696E4E00C947933A5E0B0E0EAEDF7E0B2
:100FB0000C945D33FC011D8294E02E2F2F70915014
:100FC000A92FB0E02A3010F4205D01C0295C01E0B7
:100FD00010E00C0F1D1FA00FB11F2C9384E0F6959D
:100FE000E7958A95E1F76150309739F7615067FDD1
:100FF0000BC0992349F09150E1E0F0E0EC0FFD1FA8
:10100000E90FF11D4083F2CF21E030E02C0F3D1FAE
:10101000290F311DC90175DF2596E4E00C94793361
:1010200040E362E090E0C0CFDC01FB0130E020E073
:101030009D919923B1F0913608F0905280ED890F7F
:101040008A3010F4982F05C08FEB890F863028F472
:101050009753922B332389F006C0903249F39A3389
:1010600039F3CF0107C09F012F5F3F4F908341505D
:1010700049F4C901861B970B0895292F2295207FDB
:1010800031E0D6CFF901D2CFFC0120E030E08AE098
:101090009191992379F040ED490F4A30C8F7829F2A
:1010A000A001839F500D11249A0120533109290F6B
:1010B000311DEECFFB01318320830895982F929547
:1010C0009F709A3010F4905D01C0995CFB01908391
:1010D0008F708A3010F4805D01C0895CFB018183D0
:1010E00008950E94BA34F999FECF08950C94B23451
:1010F00008950F931F93CF93CFEFC60FCF3F61F0AB
:101100008C010F5F1F4FF2DF8BDFCC2311F08AE3DE
:10111000C4DEC150C801F2CFCF911F910F91089545
:10112000A2E0B0E0E6E9F8E00C945C33FC01218138
:101130002D3421F466E08AEF93E005C0203529F4D0
:1011400060E18AED93E0D5DF28C01A82198242E07F
:10115000BE016F5F7F4F019667DF823031F40981F6
:101160001A8110270127102702C0098110E0C80149
:10117000BDDFF82E82E591DE40E364E0C80114DFB4
:1011800083E792E0C9DE8F2D4BDF8FE692E0C4DE6D
:1011900040E262E08F2D90E0D0DECBDE2296E5E0EB
:1011A0000C947833A6E0B0E0E8EDF8E00C94593305
:1011B0008C0143E0BE016F5F7F4F019635DF8230C7
:1011C00070F1823019F4C980D12C05C0C980DA8051
:1011D000DC24CD24DC247C01FF24FE01EE0DFF1D68
:1011E0006081C6017EDFEE0CFF1C8FEFE81AF80A63
:1011F0000E0D1F1DF8018081882389F041E0BE019A
:101200006F5F7F4FC80110DF892B49F0EFEFCE1AD7
:10121000DE0A6981C60165DF0E5F1F4FEBCF2696A0
:10122000E8E00C94753341E067E071E00196FCDE84
:101230008091070180FF02C0769A01C07698609184
:10124000070184E390E04DCFA1E0B0E0EAE2F9E0ED
:101250000C945F331982009731F041E0BE016F5F5B
:101260007F4F0196E1DE89818F3F09F4FFCF88230C
:1012700021F061E083E390E034DF0E94152C1092AE
:101280006E00F89498E088E10FB6F894A8958093E2
:1012900060000FBE90936000FFCFCF93DF93EC010F
:1012A00061E080E090E01DDF63E481E090E019DF21
:1012B000EED960E080E690E014DF60E081E690E047
:1012C00010DF60E083E390E00CDF62E084E390E015
:1012D00008DF60E080E690E004DF60E081E690E017
:1012E00000DF8981883719F080E090E0ADDFDF9181
:1012F000CF91089580E090E0F9DE813029F481E01B
:1013000090E0F4DE833419F080E090E0C6DF84E3FF
:1013100090E0ECDE809307010895FC018181883420
:1013200019F488E692E007C01E9903C08AE592E0AE
:1013300002C08CE492E0F0DDFCCDFC011282108250
:1013400011820895FC019FB7F894828187FD0EC039
:101350008F5F8283208181E0820F8083DF01A20F73
:10136000B11D13966C93803809F410829FBF0895C5
:10137000FC012FB7F8948281811102C02FBF08951C
:101380009FEF980F9283918181E0890F8183DF0124
:10139000A90FB11D13969C91803809F411822FBFBB
:1013A000892F0895FA019081882369F0DB01A90F44
:1013B000B11DE1E0F0E0022E01C0EE0F0A94EAF761
:1013C0008C91E82BEC93222319F08FEF820F0BC046
:1013D00081E0890F8C3010F4FA018083FB01E80F63
:1013E000F11D108287E090E00895CF93C82F5B9A9B
:1013F000882319F08091C30102C08091C50120E1CA
:10140000829FC0011124D7DC5B98CC2319F0809116
:10141000C20102C08091C40120E1829FC001112459
:10142000CADCCF910895AAE0B0E0E9E1FAE00C94BB
:101430004F334C01B62E422EDE2CE42EF12C9701B8
:101440002E5F3F4F8C2D8A0D029F800D1124082E98
:10145000000C990B209112043091130428173907BE
:1014600020F487E792E058DD9DC0281B390B3093AC
:10147000130420931204769A8091B602882341F0D7
:101480001092B6028AEA91E0FED321E0298301C0DE
:10149000198280910C04811101C027DAA2D9E0E100
:1014A000CE9EC00111249B838A8380E1A89E900177
:1014B00011243D832C83EB2DF0E0FF83EE83662423
:1014C0006394712C512CC11002C0AA2041F05B9A88
:1014D0008A819B8170DC5B988C819D816CDC188695
:1014E0002885822F220F990BEE81FF818E179F078F
:1014F00034F480E07ADFF885FF5FF887F1CFBB2016
:1015000011F081E072DF10E0812F012E000C990BA9
:101510009A8789878E159F05D4F487E0282E312C71
:1015200029853A85280D391D3A872987C301022C60
:1015300001C0880F0A94EAF7E985FA85908189232A
:1015400054DFF1E02F1A310888F71F5FDDCF17E075
:10155000880D991D9A878987812F012E000C990B80
:10156000481659066CF4C301012E01C0880F0A9475
:10157000EAF7E985FA859081892337DF1150ECCFAE
:101580008D2D1EDC015009F09ECF8091150488231B
:1015900011F039D902C086E3C5D8F981F1110E9452
:1015A000501C76982A96E2E10C946B33ADE0B0E0E3
:1015B000ECEDFAE00C9454337C01D62E842F022FEC
:1015C0005701A60EB11C462FB70172D3F5018083D7
:1015D00011E01D0D1D86198227E0712CCC24C394C7
:1015E000D12C97E0A92EB12C4701870C911C7116C4
:1015F00058F5C6010A2C01C0880F0A94EAF7F401D5
:101600009081AE01435F5F4FBE016F5F7F4F8923C3
:10161000C9DE282FF1E0AF1AB10848F7F401808144
:10162000082E82958025082E8695869580258F5FC9
:1016300086958170AE01435F5F4FBE016F5F7F4F44
:10164000B1DE282F7394CDCF222311F0215004C096
:101650008D858F5F8D8727E089E18093C40180931A
:10166000C50185E28093C2018093C301A12CC12CE6
:101670008AE0E82E4D856CE0CE010196D4DE2D96F1
:10168000EDE00C947033ACE0B0E0E9E4FBE00C94E6
:101690005D33162F042F4BE0BE016F5F7F4F019625
:1016A000C3DC202F412F682FCE0101967FDF2C96BF
:1016B000E4E00C94793343E066E0E5CFAF92CF925B
:1016C000EF920F93CF93DF93CDB7DEB760970FB64E
:1016D000F894DEBF0FBECDBF40E1BE016F5F7F4F0C
:1016E0000196A2DC69814A810B818C818093C501BE
:1016F0008D818093C4018E818093C3018F818093FB
:10170000C201E02EE2948FE0E8220F70242F2F70A8
:1017100042954F70A12CC12CCE01089684DE6096B4
:101720000FB6F894DEBF0FBECDBFDF91CF910F9102
:10173000EF90CF90AF900895A9E1B0E0E2EAFBE02E
:101740000C9455334BE08E010F5F1F4FB80101968B
:101750006BDCF82E89E0F81256C089E18093C40151
:101760008093C5018093C30182E38093C20169E045
:10177000C801A8D2F801EF0DF11D8083198E1D86D6
:10178000680127E088248394912CE12CF12CBC2C57
:10179000B01AF9E0FB1528F1C4010E2C01C0880F26
:1017A0000A94EAF7F6019081AE01475E5F4FBE01F1
:1017B000635F7F4F8923F6DD282FFFEFEF1AFF0AC3
:1017C00088E0E816F10429F7AE01475E5F4FBE01DD
:1017D000635F7F4F81E0E6DD282FEFEFCE1ADE0A50
:1017E000D4CF222311F0215004C0898D8F5F898FBF
:1017F00027E0A12CC12C8AE0E82E03E0498D6CE0A3
:10180000CE010D9610DE6996ECE00C947133A9E1DF
:10181000B0E0EDE0FCE00C9456334BE09E012F5F0E
:101820003F4F7901B9010196FFDB182F85E38093C3
:10183000C50196E19093C4019093C3018093C201C6
:10184000612FC7014BD2F701E10FF11D808399246D
:101850009394910E198E1D86670127E0AA24A39404
:10186000B12C8C2D8E19891508F044C000E010E0D1
:10187000C501002E01C0880F0A94EAF7F601908195
:10188000AE01475E5F4FBE01635F7F4F89238ADDF4
:10189000282F0F5F1F4F0430110551F7AE01475E2F
:1018A0005F4FBE01635F7F4F81E07CDD282FC50164
:1018B000002E01C0880F0A94EAF7F6019081AE016C
:1018C000475E5F4FBE01635F7F4F89236BDD282F2B
:1018D0000F5F1F4F0830110551F7AE01475E5F4F94
:1018E000BE01635F7F4F81E05DDD282FFFEFCF1AE0
:1018F000DF0AB7CFA12CC12C8AE0E82E03E0498D86
:101900006AE0CE010D968FDD6996EBE00C947233A0
:10191000AF92CF92EF920F93CF93DF9300D000D08E
:10192000CDB7DEB743E0BE016F5F7F4F01967CDB32
:101930008AE68093C50194E29093C40191E290936A
:10194000C3018093C20180E88C83A12CC12C8FE05D
:10195000E82E03E026E043E060E0CE01019663DD7F
:101960000F900F900F900F90DF91CF910F91EF900C
:10197000CF90AF900895AF92CF92EF920F93CF9305
:10198000DF93CDB7DEB72C970FB6F894DEBF0FBE4E
:10199000CDBF4BE0BE016F5F7F4F029645DB8530C8
:1019A000C1F48EE38093C5018CE18093C40181E290
:1019B0008093C3018AE38093C20185E2A82E9AEF47
:1019C000C92EE12C05E024E044E068E0CE01019658
:1019D0002ADD2C960FB6F894DEBF0FBECDBFDF9187
:1019E000CF910F91EF90CF90AF900895A0E0B0E02D
:1019F000ECEFFCE00C945533DC011092E101109205
:101A0000F6011196DC901197DD0CDD0CDD0C1396C0
:101A10008C911397D81A8D2D97E0B92EBD0C10928A
:101A2000E20128E0D22ED80E71E090E040E087E09D
:101A300057E0C12C37E0E32EF12C01E010E07D15DA
:101A400009F47DC0FD01EC0DF11D248130E0052E6F
:101A500002C0359527950A94E2F721703327552364
:101A600011F0515002C0C39457E06B3479F48330C5
:101A700009F049C0411108C0232B09F05DC0109244
:101A8000E1019093F60170C040E03FC08F3F39F50F
:101A90006634B1F4E92FF0E0EE51FE4FE0810E2EF6
:101AA000E295E0250E2EE695E695E025EF5FE695BA
:101AB000E170CE2F812CD82D2C173D0741F004C0AA
:101AC000653429F4232B19F44093E101DACF9F5FA9
:101AD000E92FF0E0EE51FE4F108287E02EC0232B5D
:101AE00049F1663469F4E92FF0E0EE51FE4FA08031
:101AF0009801082E01C0220F0A94EAF72A2919C07A
:101B0000653429F017C08F3FE9F2232B99F0E92FB4
:101B1000F0E0EE51FE4F9701281B310987FD339508
:101B2000480102C0880C991C2A95E2F79401308183
:101B3000232B2083815001C041E07F5F80CF409301
:101B4000E1019093F601B71678F4653431F48F3FD4
:101B500021F49F5F9093F60102C04111FACF81E01A
:101B60009091F601911101C080E0CDB7DEB7ECE0B5
:101B70000C94713310926F00E091F9018CE1E89FB1
:101B8000F0011124E650FE4F1082809114048D7FE5
:101B9000809314040895FC018181843108F0EACF18
:101BA000662389F0DF01A80FB11D21E030E003803A
:101BB00002C0220F331F0A94E2F714969C911497E7
:101BC000292B14962C939381992319F09150938388
:101BD000089597E093838F5F8183E80FF11D14824E
:101BE0000895DC01362F11962C911197E22FF0E029
:101BF00050E09C91BF01641B750B655F7F4F67319F
:101C00007105C8F4892F90E0632F70E09C01261BBA
:101C1000370B255F3F4F2731310568F49F01280FAF
:101C2000391F640F751F261B370B255F3F4F81E05F
:101C30002731310508F080E00895539A5B98529857
:101C4000E9E6F0E080818061808388E097E090930E
:101C5000130480931204EAEFF1E0148E10AE109298
:101C60004E0210920C0408958091060481110AC05E
:101C700080911504882321F00E9475040C940304BC
:101C80000C946C040895FC01218121110BC08091FA
:101C90001504C6D940E265E08091120490911304C6
:101CA0004CD947C941E065E174E00196BDD9DCCF6C
:101CB000442339F04150FB01E40FF11D9081890F5D
:101CC000F7CF08959C0180E0662339F06150F90157
:101CD000E60FF11D90818927F7CF0895FC017091DF
:101CE000E10140E095E020E0662399F06150DF01DA
:101CF000A60FB11D3C91532F52955F702527950F6C
:101D0000772311F0442319F03F702327930F4F5F7F
:101D1000EBCF920F30E1939FC0011124822B0895E5
:101D2000FC0182819381A081B181A80FB11D2C910A
:101D300030E0092E02C0359527950A94E2F721700C
:101D40003FEF390F3383911104C08F5F828387E0A7
:101D50008383822F0895A0E0B0E0E1EBFEE00C94D5
:101D600056338C01942EC62ED12CC0E0D0E0B12C7D
:101D7000AA24A394760121E0E21AF108CC15DD052E
:101D8000C9F0C801CDDF882399F0992051F0C7012F
:101D90008C1B9D0B2A2D01C0220F8A95EAF7822FFA
:101DA00006C08A2D0C2E01C0880F0A94EAF7B82AC3
:101DB0002196E4CF8B2DCDB7DEB7EBE00C947233D8
:101DC000A4E0B0E0E6EEFEE00C9456331B8227E080
:101DD0002C839C012C5F3F4F3A8329831092F6019C
:101DE000FC012181338187E090E0831B9109F8E0B9
:101DF0002F9F800D911D1124853491050CF44FC047
:101E0000912C0091F601063070F5E02EF12C40E0A7
:101E100068E0CE0101969FDF9701A9014E515E4F08
:101E20007A01FA018083182F012E12951025012EB8
:101E3000169516951025CE01019672DF1F5F11FBD6
:101E4000AA24A0F8B12C90E0A816B90641F5CE015D
:101E5000019666DF811123C0F701808198260F5F0C
:101E60000093F601CECF40E068E0CE01019673DF2B
:101E7000082F182F012E12951025012E1695169554
:101E80001025CE0101964CDF1F5F11FBCC24C0F85A
:101E9000D12C90E0C816D90611F481E0901280E0B0
:101EA0002496EBE00C947233A4E0B0E0EAE5FFE0A6
:101EB0000C945833FC011B8287E08C83CF0104967D
:101EC0009A8389838081853009F052C021813381D2
:101ED00087E090E0831B910938E0239F800D911DDE
:101EE00011248039910509F043C01092F6013FE0BA
:101EF000C32E30EFD32E19E88091F601E82EF12C95
:101F0000BB24B394B80E41E068E08F3078F4CE0182
:101F1000019621DFC80ED11CF701EE51FE4F1827A4
:101F2000108314E2180FB092F601E6CFCE010196AD
:101F300012DF8601080F111DB092F601F701EE5174
:101F4000FE4F8095808341E068E0CE01019603DF7B
:101F500090E0982F8827081B190B41E068E0CE011C
:101F60000196F9DE282F30E081E02017310709F0D3
:101F700080E02496E9E00C947433A4E0B0E0E3EC54
:101F8000FFE00C945C331B8227E02C839C012C5FC8
:101F90003F4F3A832983FC0121812430A1F58381BD
:101FA000813089F51092F6018091F601082F10E03A
:101FB000FF24F394F80E41E0843098F4811106C0B8
:101FC00067E0CE010196C7DE806804C068E0CE01FC
:101FD0000196C1DEF801EE51FE4F8083F092F601CA
:101FE000E3CF67E0CE010196B6DEF801EE51FE4F79
:101FF000880F8083F092F6019091E20192959F7094
:1020000081E09A3009F080E02496E5E00C94783382
:10201000CF93DF93FC0181818330C1F483818730CA
:10202000A9F48081883091F490E0292F30E0D90123
:10203000AE51BE4FEF01C20FD31F8C818C939F5FB7
:10204000933099F79093F60181E001C080E0DF9131
:10205000CF910895FC01908180911404993611F07C
:10206000933751F4982F9370913011F4826006C029
:1020700080FF07C08B7F03C080FD03C08460809316
:1020800014040895A1E0B0E0E8E4F0E10C945533C5
:1020900019828091C6018823B9F18091150487FFC8
:1020A00017C084E30E9481038058803458F0803C3C
:1020B00058F490E08055910923E0959587952A95ED
:1020C000E1F703C080E001C08FE08F590E944D0707
:1020D0008091150483FF16C082E70E944D0780910E
:1020E000150484FF04C08091C7010E944D0786E655
:1020F0000E944D078091150484FF04C08091C601A1
:102100000E944D071092C6018091F701882309F4BF
:1021100064C2769A0091F8012CE1029F800111249B
:1021200006501E4F8981811106C0C80171DF8823C6
:1021300011F083E789838981811142C0C801B4DE2F
:10214000882311F083E589838981811139C066E490
:10215000C8014CDC8823A1F1F090F601FA94F092CA
:10216000F6014F2D62EE71E086E0A2DDEF2DF0E08A
:10217000EE51FE4FE0808E1105C093E09F1510F4E4
:1021800086E41BC0282F30E02F5F3F4F4E2D50E0DC
:102190002417350739F4A3E0AF1520F496E49983AA
:1021A00080830EC04F2D62EE71E08CE081DDE8127D
:1021B00006C0B3E0BF1518F484E5898301C0198215
:1021C000898181111FC065E4C80110DC882389F072
:1021D0008091F60181508093F601893051F469E0D5
:1021E00082EE91E06FDD9091EB01891302C085E4EE
:1021F00089838981811106C0C801E2DD882311F03D
:1022000088E489838981811142C0C801B6DE8823B0
:1022100011F084E789838981811139C0F801438DE8
:102220006091C701C8014A96DCDC682FC801B3DCA5
:102230006BE4C801DBDB8823C1F0E091F601FF24E9
:10224000FA94FE0EF092F6016F2D82EE91E046DDDB
:10225000EF2DF0E09091E101E91BF109EE51FE4F05
:102260009081891302C08BE48983898181110FC019
:10227000D80113968C911397873021F08F5F1396B6
:102280008C9308C0F80113828181815081838981F8
:1022900081112DC0D80111968C911197843039F598
:1022A00013968C91843019F54EE16CE3C801489681
:1022B00098DC8823E1F04EE16091C701C8014A969D
:1022C00090DC682FC80167DC80E0282F30E0F9013E
:1022D000EE51FE4FD801A20FB31F14969C9190832C
:1022E0008F5F853091F78093F60182E5898369815C
:1022F000662309F4DBC04091150440FFD7C08091EC
:1023000014048E7F8B7F80931404942F927041FD70
:1023100064C05091E0017091F60157133EC080E017
:102320008517C0F4282F30E0E1E0E80FD901A4536D
:10233000BE4F2E513E4FFC91D9012C91F21741F026
:102340008093E001209114042D7F2093140404C095
:102350008E2FE6CF8093E00185131FC0C0900E043E
:10236000D0900F04E0901004F09011048090C80108
:102370009090C901A090CA01B090CB01C818D908AB
:10238000EA08FB08B6E2CB16D104E104F10428F414
:1023900080911404816080931404971760F4292FAE
:1023A00030E0F901E453FE4FD901AE51BE4F8C919C
:1023B00080839F5FF2CF9093E00180910E04909113
:1023C0000F04A0911004B09111048093C801909360
:1023D000C901A093CA01B093CB016435E9F446FD6D
:1023E0001BC08091F6018530B8F08091E4018B34F8
:1023F00071F0893661F09DEA980F923040F08D5768
:10240000823028F08091E5018077803729F480912F
:102410001404816080931404B801CE0101961ADE81
:102420008981843569F49091A404992349F09091AD
:10243000A604911105C0909114049B7F90931404FD
:102440009091140492FF32C00E944D078091E101E7
:10245000882329F08091F60181508093F601F12CB8
:10246000E091F601FE1648F4EF2DF0E0EE51FE4F3C
:1024700080810E941008F394F3CF8091E1018823BA
:1024800051F0F0E0EE51FE4F80818F7040E361E04B
:1024900090E00E94D4078091150485FF05C084E375
:1024A0000E9481030E9410080E94990780911504E0
:1024B00082FF7AC080E70E944D07F801808140E2E8
:1024C00062E090E00E949D07D80158968C9140E20E
:1024D00065E0B0E18B9FC00111240E949D07F801C7
:1024E000818D40E265E0F0E18F9FC00111240E94E0
:1024F0009D07D8015A968C9140E265E0B0E18B9F30
:10250000C00111240E949D07F801838D40E265E01F
:10251000F0E18F9FC00111240E949D07D8011296FF
:102520008C9140E263E090E00E949D07F801818178
:1025300040E263E090E00E949D07D80113969C91D1
:1025400040E262E027E030E0F901E91BF109CF0148
:102550000E949D0780E20E944D078091150485FF2F
:1025600008C084E30E9481030E94100880E20E9458
:102570004D07D80113968C911397873031F011963F
:102580008C9111978F5F11968C93F12CF8018181BA
:10259000F81640F4F801EF0DF11D84810E94100837
:1025A000F394F4CF0E949907D8011C928091F7010F
:1025B00081508093F7018091F8018F5F843019F08A
:1025C0008093F80102C01092F801769889818435D1
:1025D00021F482EE91E00E9485272196ECE00C9494
:1025E00071331F920F920FB60F9211242F933F93C6
:1025F0004F935F936F937F938F939F93AF93BF930B
:10260000EF93FF9310926F008091150483FF03C036
:102610008EE20E944D078091F9019CE1899FF001B3
:102620001124E650FE4F9081933018F09181923042
:1026300010F4A0DA18C09091F701933049F480911A
:10264000150482FFF6CF8EE792E00E948C07F1CF4F
:102650009F5F9093F7018F5F843019F08093F901A9
:1026600002C01092F901FF91EF91BF91AF919F913C
:102670008F917F916F915F914F913F912F910F902B
:102680000FBE0F901F9018959BED980F973150F447
:1026900096EF960F9D3130F491E0681708F090E0C6
:1026A000892F089580E008951F920F920FB60F9220
:1026B0001124FF920F931F932F933F934F935F9398
:1026C0006F937F938F939F93AF93BF93CF93DF933A
:1026D000EF93FF9380919C04823021F483E08093F8
:1026E0009C0459C10091840010918500E4E0169586
:1026F0000795EA95E1F7C091F9018CE1C89FE001E7
:102700001124C650DE4F8881843031F40E3208F433
:1027100042C10F3448F0B5C0853031F4073108F4B8
:102720003AC1083208F0ADC04A990DC084508230D9
:1027300038F461E0CE012FDA109285001092840007
:102740000093C70128C19091C701091B0093C601DE
:1027500010928500109284008881883071F42A815B
:1027600021110BC021E02A83988F9A8F098F0B3B90
:1027700010F4000F01C006950B8F8450823020F4B6
:1027800060E0CE0108DA07C182E086BB0881011152
:1027900011C09091C701953608F0FDC08091C60127
:1027A000853608F0F8C0988F898F81E08A8382E0AF
:1027B0008883F1C01091C601023009F072C0009107
:1027C000C701412F602FCE0148960BDA2A8188235A
:1027D000F9F0888D90E0AC01440F551F840F951FD0
:1027E000800F911D9595879595958795888F898DF3
:1027F00090E0AC01440F551F840F951F810F911D70
:102800009595879595958795898F2F5F2A83C3C066
:10281000243008F444C080EA9FE0909389008093BC
:1028200088008A818C3050F0288D898D90E0820F4D
:10283000911D8536910524F084E026C08A3080F011
:10284000288D898D90E0820F911D85974CF485E04D
:10285000888388EE93E0909389008093880015C068
:1028600080911704882379F0612F802F0DDF882352
:1028700051F0688D898D08DF882329F081E08093ED
:102880009C0478D988C083E088830A8F1B8F1982C3
:1028900087E08B831C8282E080936F007CC018826B
:1028A00078CF083029F581E9810F8D3178F460E027
:1028B000CE0171D9888D90E09C01220F331F820FC9
:1028C000931F2091C701820F911D4EC0173E08F43F
:1028D00062C061E0CE015FD98A8D90E09C01220F39
:1028E000331F820F931F2091C701820F911D15C0C6
:1028F000F090C701412F6F2DCE014A9672D98823DF
:1029000001F161E0CE0147D98A8D90E09C01220F50
:10291000331F820F931F8F0D911D95958795959568
:1029200087958A8F8B8D90E09C01220F331F820F39
:10293000931F810F911D95958795959587958B8F01
:102940002AC0412F6F2DCE0148964BD9882301F123
:1029500060E0CE0120D9888D90E09C01220F331FCA
:10296000820F931F8F0D911D95958795959587954E
:10297000888F898D90E09C01220F331F820F931F57
:10298000810F911D9595879595958795898F03C0A2
:10299000073009F076CFFF91EF91DF91CF91BF9192
:1029A000AF919F918F917F916F915F914F913F91E7
:1029B0002F911F910F91FF900F900FBE0F901F90BE
:1029C0001895E091F9018CE1E89FF0011124E6509F
:1029D000FE4F8081811107C081E09091D5049F3F17
:1029E00019F480E0089581E0089580E690E00E9467
:1029F00076088093170481E690E00E947608809321
:102A0000A404882321F081E2809315042DD910922B
:102A10009D0408955B9A0C94DB065B980C94DB068E
:102A2000A7E0B0E0E6E1F5E10C94593330911B04E6
:102A300090E0E92FF0E0E356FB4F2081222309F4D8
:102A40006FC0231711F09F5FF4CF95E79983882318
:102A500091F0BE016E5F7F4F8091A4040E945E08DA
:102A6000BE016C5F7F4F809117040E945E0885E570
:102A70008E8316E001C011E00E9475040E94F103EC
:102A800006E080E891E0C6DF80E093E0C6DF015019
:102A9000C1F780E093E0BEDF80E891E0BEDF80E830
:102AA00091E0B8DF5B9887E390E00E94960383E0B3
:102AB0000E94E00628988FE70E94120380911A0472
:102AC000810F0E941203CE0101966C017C01F70177
:102AD00081917F010E9412038E2D8C198117B8F30A
:102AE00080911A04882339F088E194E00E94B809A3
:102AF0000E941203F5CF289A0E94F10388E194E026
:102B00000E949D0915E18AE30E9481038F7731F0CD
:102B1000115021F081E00E94E006F5CFA5D807C052
:102B2000992309F492CF88E194E00E949D092796A9
:102B3000E8E00C947533CF93DF93EC018981811128
:102B40000BC0809117040E9410088091A4040E9479
:102B500010080E9499073EC0863681F42296ADE99E
:102B6000B4E0E0E08991882321F08D93EF5FE530B8
:102B7000C9F7F0E0E356FB4F10822CC08936D9F438
:102B800041E067E174E0CE0102960E941408609172
:102B9000170480E690E00E94710841E064EA74E066
:102BA000CE0104960E9414086091A40481E690E08E
:102BB0000E9471080FC088E194E00E949D0921964F
:102BC0006991662329F088E194E00E94A209F8CF78
:102BD00080E026DFDF91CF910895A1E0B0E0E3EF40
:102BE000F5E10C94593380919C04882309F485C045
:102BF000C0900E04D0900F04E0901004F0901104E7
:102C0000833009F060C08FE30E948103182F863063
:102C1000C8F089E695E00E949D0928988FEF0E94F0
:102C2000120380E00E941203082F115049F080E047
:102C30000E941203682F89E695E00E94A209F5CF51
:102C4000289A01C000E010D810929C04053709F0C2
:102C500054C041E0BE016F5F7F4F8CE695E00E945B
:102C60001408019759F5998180911704981326C08B
:102C700080917005853571F480916B05882339F05A
:102C800089E695E00E94B8090E944D07F5CF0E94A1
:102C9000990733C080916B05845080936B0584E065
:102CA00080936A056AE089E695E00E94A209E091B6
:102CB0000A04F0910B0488E009951FC089E695E0AD
:102CC0000E949D091AC0823059F4809116049C2DEF
:102CD000981B983090F00E94340E10929C040DC006
:102CE000813059F487E390E00E9496030E94030428
:102CF00082E080939C04C09216042196E8E00C9434
:102D000075335FDE882319F083E08093A3048091FC
:102D1000A30481508093A304882321F083E080934F
:102D20009B04089581E07CCE0F931F93CF93DF9394
:102D3000EA98209A289A8EE190E00E94DB06289873
:102D40008EE190E00E94DB06289A8DE290E00E94DE
:102D5000DB0680E30E94920384E690E00E94DB069B
:102D6000C5EAD2E0FE0131966491FE0184910E9491
:102D700088032296F2E0C73DDF07A1F780916B023E
:102D8000811107C083E30E94920384E00E94E00661
:102D900010C0CFE8D2E005EA12E0FE01319664915E
:102DA000FE0184910E94880322960C171D07A9F743
:102DB000E9CF84E30E94920385E30E9481038D3072
:102DC000C1F7DF91CF911F910F910895A2E3B0E079
:102DD000ECEEF6E10C945D3380916A02882309F4ED
:102DE000A1C04A9B8AC08FE30E9481038F778983A9
:102DF000823368F08AE30E94920386E30E94920382
:102E00008DE30E94920384E30E9492038BC0289872
:102E10008FEF0E94120310E08981181760F480E0A0
:102E20000E941203E2E0F0E0EC0FFD1FE10FF11D44
:102E300080831F5FF1CF80E00E941203082F80E0A3
:102E40000E941203289A84E30E94920385E30E9461
:102E500081038D30C1F78A8196E798279A8392E0A3
:102E60002981E92FF0E0921768F421E030E02C0F7F
:102E70003D1FE20FF31F20818452822780839F5FD2
:102E8000822FEECF81E090E08C0F9D1FE80FF91F9D
:102E900090818B81892780838091150484FF12C0E3
:102EA00081E60E944D0710E08981811730F1E1E051
:102EB000F0E0EC0FFD1FE10FF11D80810E944D0736
:102EC0001F5FF2CF81E40E944D0710E089818117D6
:102ED00058F0E1E0F0E0EC0FFD1FE10FF11D808103
:102EE0000E9410081F5FF2CF8091150485FF03C078
:102EF000802F0E9410080E94990785E30E94810399
:102F0000813029F0813161F48AE30E94920386E3E3
:102F10000E9492038DE30E94920384E30E94920335
:102F20000E94BC04E296E4E00C947933AAE3B0E09A
:102F3000ECE9F7E10C94553341E38E010F5F1F4F2D
:102F4000B80101960E9414087C019C01332721508E
:102F50003109898190E02817390709F0A3C08091D1
:102F60006A02811104C0E0DE83E00E94E006DB809B
:102F70009A8186E789278A8322E03981822F90E02F
:102F8000F801E80FF91F231750F4DE01A80FB91F4D
:102F90008C9184529081892780832F5FEECF80812E
:102FA0008D258083CE01C7960E94DF0585E30E94B0
:102FB000920385E30E948103833181F1CE01C396A0
:102FC0000E94DF054BA95CA96DA97EA98FA998ADC8
:102FD000A9ADBAAD84179507A607B70760F44A01F3
:102FE0005B01881A990AAA0ABB0A2DEB8216910482
:102FF000A104B10470F4481759076A077B0770F4FD
:1030000084549F4FAF4FBF4F84179507A607B7074C
:1030100028F485E892E00E948C0727C085E30E948F
:103020008103833119F6D4FE08C088E70E94E006C8
:1030300088E70E94E00688E701C08AE00E94E00677
:1030400028988FE70E94120368018C2D801B8E1533
:1030500030F4F60181916F010E941203F6CF289A95
:1030600085E30E9481038331D9F385E30E948103C4
:10307000863149F48BE30E94920386E30E94920317
:103080008DE30E94920380916A02882349F084E3D1
:103090000E94920385E30E9481038D30C1F702C034
:1030A0000E94340EEA96ECE00C947133FC0191819D
:1030B000923731F0923559F481E080936B0202C06F
:1030C00010926B0231DE81E080936A02089593379B
:1030D00019F4CF0101962ACF10926A020895282F81
:1030E0002A7A30E035952795982F9575292725352B
:1030F000310559F4982F9670969580768695869529
:103100008695892B95E0892708958FEF0895109271
:103110006C0282E080936D0280917102882379F0C5
:1031200080916D02833021F480916C02823020F412
:1031300080916D02843011F4769A01C0769880E90E
:103140008093C9000E940304EA98089510926C02CB
:1031500084E080936D0280917102882379F08091E0
:103160006D02833021F480916C02823020F48091D2
:103170006D02843011F4769A01C076980E94F103B2
:10318000EA9888E28093C900089510926C0281E069
:1031900080936D0280917102882379F080916D0295
:1031A000833021F480916C02823020F480916D0292
:1031B000843011F4769A01C076981092C90086E3A3
:1031C0000E949203EA9808950F931F93CF938091E2
:1031D0006D02833009F03FC080916C028430D9F5D4
:1031E00080917102882381F080917202882361F0BE
:1031F0008DEA91E00E948107809172020E944D0742
:103200008AE30E944D0704C080EB91E00E94810791
:10321000C0E080917502C817D8F40C2F10E00A584E
:103220001D4FF801808182958F708A3010F4805D87
:1032300001C0895C0E944D07F80180818F708A303F
:1032400010F4805D01C0895C0E944D07CF5FE1CF23
:103250000E9499075CDFCF911F910F910895539AB7
:103260001092CD008CE08093CC001092C800109298
:10327000C90086E08093CA000895CF93DF93209A17
:10328000289A8EE190E00E94DB0628988EE190E07B
:103290000E94DB06289A8DE290E00E94DB0680E324
:1032A0000E94920384E690E00E94DB06C7EDD2E024
:1032B000FE0131966491FE0184910E94880322965A
:1032C000F3E0C930DF07A1F783E30E94920384E0B3
:1032D0000E94E006C4DF10926C0281E080936D02D0
:1032E00080917102882379F080916D02833021F4FE
:1032F00080916C02823020F480916D02843011F450
:10330000769A01C07698DF91CF910895CF93DF939D
:10331000EC018981843649F018F48823C9F153C03F
:103320008C3639F0833791F04EC081E08093710282
:1033300002C01092710280916D02811101C09DDF67
:1033400080916D028130F1F4E2DE1CC080916D024B
:10335000811101C092DF80916D02813021F0809156
:103360006D02823091F480916D02823009F40DDF9C
:1033700040E466E772E0CE0102960E941408809352
:103380007402E4DE83EB91E020C086EB91E01DC087
:1033900010927102FADE10926C0210926D0280910E
:1033A0007102882379F380916D02833021F480913A
:1033B0006C02823020F480916D02843011F4769A90
:1033C000E1CF7698DFCF89EB91E00E9481070E94E0
:1033D0009907DF91CF9108951F920F920FB60F9228
:1033E00011242F933F934F935F936F937F938F930A
:1033F0009F93AF93BF93EF93FF9380916D028430BF
:1034000009F0D8C080916C02853039F118F4882316
:1034100041F0D0C0863009F450C0873009F4B5C0FF
:10342000C9C01092750285E080936C0280916D0294
:1034300080936D0280917102882379F080916D02F2
:10344000833021F480916C02823020F480916D02EF
:10345000843011F4769A01C07698E091750281E08B
:103460008E0F80937502F0E0E45FFE4F80818093C1
:10347000CE00809175028A3008F49DC086E080936A
:103480006C0280916D0280936D028091710288239D
:1034900079F080916D02833021F480916C0282304A
:1034A00020F480916D02843011F4769A01C07698F0
:1034B00010927302109270026DC08091700281119F
:1034C0002BC09091750280917402981790F4E0914E
:1034D0007502F0E0EA58FD4F908180917302890FE8
:1034E00080937302E0917502F0E0EA58FD4FE081AD
:1034F00003C0E0917302E195AE2FA295AF70B0E0EA
:10350000AA5EBE4F8C9180936E02EF70F0E0EA5E8F
:10351000FE4F808180936F02E091700281E08E0FF8
:1035200080937002F0E0E259FD4F80818093CE00DD
:1035300080917002823009F03EC0809175028F5FE9
:1035400080937502109270029091750280917402BE
:10355000891788F587E080936C0280916D028093D3
:103560006D02809171028823A9F080916D028330F1
:1035700021F480916C02823020F480916D028430BD
:1035800011F4769A07C0769805C080917502843050
:1035900020F0BDDD109275020EC0E091750281E051
:1035A0008E0F80937502F0E0E85FFE4F808180937C
:1035B000CE0001C0ACDDFF91EF91BF91AF919F9123
:1035C0008F917F916F915F914F913F912F910F90CC
:1035D0000FBE0F901F9018951F920F920FB60F926B
:1035E00011242F933F934F935F936F937F938F9308
:1035F0009F93AF93BF93CF93EF93FF939091C800A6
:103600008091CE0020916D02223051F020916D0208
:10361000233009F033C120916C02243009F42EC10B
:10362000292F2871F9F080916D02833009F026C1AD
:1036300020916C0280917102223060F094FF05C0ED
:10364000882309F4FAC086E4DFC0882309F4F5C0B2
:103650008FE4DAC010926C0292E090936D028111B7
:10366000DCC00CC190916C02913061F120F092307D
:1036700009F478C003C196E090937502E091750259
:10368000F0E0E45FFE4F90818913F8C081E0809301
:103690006C0283E080936D0280917102882379F03F
:1036A00080916D02833021F480916C02823020F48D
:1036B00080916D02843011F4769A01C07698109250
:1036C0007202D7C0909175029A3030F5E091750280
:1036D000F0E0E45FFE4F9081891306C0809175028F
:1036E0008F5F8093750218C010926C0282E0809305
:1036F0006D0280917102882379F080916D02833090
:1037000021F480916C02823020F480916D0284302B
:1037100011F4769A01C07698809175028A3009F08A
:10372000ADC082E080936C0280916D0280936D0247
:1037300080917102882379F080916D02833021F4A9
:1037400080916C02823020F480916D02843011F4FB
:10375000769A01C0769810927502109270021092BB
:1037600073028CC020917502203458F08091710250
:10377000882311F08CE448C010926C0290936D0283
:103780007DC0E091700291E09E0F90937002F0E096
:10379000E259FD4F80839091080189131EC08091EA
:1037A000750290917102823020F08091730288231B
:1037B00029F0992309F441C083E426C08091750261
:1037C00081508093750284E080936C0280916D0239
:1037D00080936D02911121C051C08091700282309E
:1037E00009F04CC01092700280916E0278DCC82FF4
:1037F00080916F0274DCCF3F11F08F3F21F58091F3
:1038000071028823D1F08DE48093720284E080936A
:103810006C0280916D0280936D0280916D02833005
:1038200021F480916C02823020F480916D0284300A
:1038300011F4769A23C0769821C010926C0282E02F
:1038400080936D021BC0E0917502F0E090E1C99F8A
:1038500090011124282BEA58FD4F2083E091750236
:10386000F0E0EA58FD4F908180917302890F8093B8
:103870007302809175028F5F80937502FF91EF91C3
:10388000CF91BF91AF919F918F917F916F915F91F8
:103890004F913F912F910F900FBE0F901F90189551
:1038A000CF93DF93EA98209A289A8EE190E00E94C5
:1038B000DB0628988EE190E00E94DB06289A8DE2D4
:1038C00090E00E94DB0680E30E94920384E690E091
:1038D0000E94DB06C2E2D3E0FE018491813440F015
:1038E00083E30E94920384E00E94E006CFEF0DC0C4
:1038F000FE0131966491FE0184910E948803229614
:10390000F3E0CE35DF0741F7EBCF84E30E9492036B
:103910008AE090E00E94DB06C150B9F781E0809315
:10392000B602DF91CF9108958F929F92AF92BF928E
:10393000EF92FF920F931F93CF93DF937C01EB01E4
:10394000FC0110811F5F209719F420E030E002C0D5
:1039500024E630E0F8E01F9FC00111246AE070E027
:103960000E943633260F371F4901032E000CAA0888
:10397000BB088091120490911304AC0160E070E0E8
:10398000481559056A057B0528F482E193E00E94F9
:103990008C07D3C0821B930B909313048093120463
:1039A0008091B602811101C07BDF85E30E94810313
:1039B0008D3071F08AE50E944D0785E40E944D0725
:1039C00082E50E944D0782E50E944D0781E34BC0CE
:1039D0008091B7029091B802A091B902B091BA0259
:1039E000892B8A2B8B2B49F50E94F10385E30E94DA
:1039F0008103833109F442C08AE50E944D0785E4C2
:103A00000E944D0782E50E944D0782E50E944D0706
:103A100082E329C040910E0450910F04609110047C
:103A2000709111040196A11DB11D84179507A60779
:103A3000B707D1F681E00E94E00640910E04509154
:103A40000F0460911004709111048091B70290915D
:103A5000B802A091B902B091BA02481759076A0793
:103A60007B07C1F6E7CF0E944D0785E30E948103E3
:103A70000E9410080E94990713DF5FC0CD2B41F40C
:103A800028988FE70E9412030E2DC02FDF2D08C04B
:103A9000CAE0D0E084E60E94E0062197D9F7F0CF93
:103AA0008C2F801B811720F489910E941203F8CF7C
:103AB000289AC8EC85E30E9481038D30E9F485E300
:103AC0000E9481038D3019F18AE50E944D0785E43B
:103AD0000E944D0782E50E944D0782E50E944D0736
:103AE00083E30E944D0785E30E9481030E94100832
:103AF0000E949907D5DE0BC085E30E9481038331C4
:103B0000F1F681E00E94E006C150A1F6D8CF809185
:103B1000B602811102C00E94340E80910E04909171
:103B20000F04A0911004B09111048093B7029093F8
:103B3000B802A093B902B093BA02DF91CF911F915E
:103B40000F91FF90EF90BF90AF909F908F9008954E
:103B5000ACE0B0E0EEEAFDE10C945E33FC018BE0FA
:103B6000898381818A831B8282E08C8387818D8314
:103B700080858E8381858F838481888785818987ED
:103B800086818A871B861C8684E10E94E00660E0AD
:103B900070E0CE010196C8DE8AE50E944D0710E074
:103BA000812F90E0298130E0281739075CF0E1E0AF
:103BB000F0E0EC0FFD1FE80FF91F80810E94100854
:103BC0001F5FEECF8091150485FF03C080E00E9447
:103BD00010080E9499072C96E3E00C947A33CF9357
:103BE000DF93EC019091BE02911108C08091BF0259
:103BF000811104C08091C0028823A9F08B81803399
:103C000019F08F7E803479F48F8198130CC09885D9
:103C10008091BF02981307C099858091C0029813C4
:103C200002C0CE0195DF8091BB02811108C0909146
:103C3000BC02911104C09091BD029923A9F0988112
:103C40009B3091F49B81903479F49F8189130CC04F
:103C500098858091BC02981307C099858091BD0218
:103C6000981302C0CE0174DFDF91CF910895AEE1C9
:103C7000B0E0EDE3FEE10C945D338091B602882361
:103C800009F469C04A9B59C08FE30E9481038F7772
:103C90008E3108F08DE1898328988FEF0E941203FE
:103CA00010E08981181760F480E00E941203E2E0BE
:103CB000F0E0EC0FFD1FE10FF11D80831F5FF1CFDE
:103CC00080E00E941203082F80E00E941203289ACD
:103CD000CE01019684DF8091150484FF12C08AE72B
:103CE0000E944D0710E089818117A8F1E1E0F0E022
:103CF000EC0FFD1FE10FF11D80810E944D071F5F3A
:103D0000F2CF8AE50E944D0710E08981811758F0B3
:103D1000E1E0F0E0EC0FFD1FE10FF11D80810E945A
:103D200010081F5FF2CF8091150485FF03C0802F1C
:103D30000E9410080E9499070EC085E30E9481032B
:103D4000813149F48AE30E94920386E30E94920340
:103D500084E30E9492036E96E4E00C947933AEE122
:103D6000B0E0E5EBFEE10C945D338C01FC01818158
:103D7000823711F495DD36C0833711F0863601F5B0
:103D80004DE1BE016F5F7F4FC80102960E9414088B
:103D900099270197298130E08217930729F089E05C
:103DA00093E00E948C071EC061E070E0F801818101
:103DB000833711F060E070E0CE010196B5DD12C0EE
:103DC000813621F443E06EEB72E005C0873741F4A1
:103DD00043E06BEB72E0C80102960E94140802C037
:103DE0001092B6026E96E4E00C947933CF93DF9391
:103DF000EA98209A289A8EE190E00E94DB062898A3
:103E00008EE190E00E94DB06289A8DE290E00E940D
:103E1000DB0680E30E94920384E690E00E94DB06CA
:103E2000289880E40E941203CEE5D3E0FE0184913D
:103E30000E9412032196F3E0CB36DF07B9F7809199
:103E400026010E941203809127010E941203809193
:103E500028010E941203C0E0D0E0FE01E259FC4FAD
:103E600084910E9412032196C931D105B1F7289A95
:103E700028988EE70E9412038BE290E0EC012196D5
:103E80000E9476080E941203CE01E397B9F7289AA0
:103E900083E30E94920381E00E94E00681E0809328
:103EA0000C04DF91CF910895A0E0B0E0EAE5FFE1D6
:103EB0000C945733EC018981843769F46DE271E029
:103EC000CE0102960E94440840E260E080912D01FC
:103ED00090912E0112C0833709F098C18A818237F0
:103EE00089F469E271E0CE0103960E94440840E241
:103EF00060E08091290190912A010E949D070E9413
:103F00009907F8C1769A8091C302811116C08091F9
:103F10006A02882329F081E08093C20210926A022B
:103F20008091B602882329F081E08093C10210922B
:103F3000B6025CDF83E00E94E00686E30E94920303
:103F40008AE30E9492038BE30E9492030E94F10392
:103F5000FE0101900020E9F7EC1BFEEFFF2EFE0EA4
:103F600010E0AAE0BA2EB5E0EB2E88E2A82E209150
:103F7000290130912A01812F012E000C990B821703
:103F8000930708F005C131E2F31214C05B9A8091E7
:103F90002D0190912E010E94DB065B9880912B01F0
:103FA00090912C01FC01BE9EC001BF9E900D11247A
:103FB0000E94DB066E01F2E0CF0ED11C01E00F156E
:103FC0000CF0BCC0F60181916F01803309F048C04C
:103FD000F1E25B9AFF1220C080912B0190912C019D
:103FE0000E94DB065B9880912B0190912C010E942E
:103FF000DB065B9A80912B0190912C010E94DB06DD
:104000005B9880912B0190912C019C01E29EC00154
:10401000E39E900D11248EC080912D0190912E0170
:104020000E94DB065B9880912D0190912E019C01EE
:10403000220F331F820F931F0E94DB065B9A809131
:104040002D0190912E010E94DB065B9880912D013D
:1040500090912E019C01220F331F820F931F6AC083
:10406000813339F531E25B9AF31212C080912B0152
:1040700090912C010E94DB065B9880912B0190911E
:104080002C01FC01EE9EC001EF9E900D112420C07A
:1040900080912D0190912E019C01220F331F820FE0
:1040A000931F0E94DB065B9880912D0190912E0159
:1040B0002EC0F1E25B9AFF121AC080912B01909101
:1040C0002C010E94DB065B9880912B0190912C01C2
:1040D0000E94DB065B9A80912B0190912C010E943B
:1040E000DB065B9880912B0190912C0123C080917D
:1040F0002D0190912E010E94DB065B9880912D018D
:1041000090912E019C01220F331F820F931F0E945A
:10411000DB065B9A80912D0190912E019C01220F6C
:10412000331F820F931F0E94DB065B9880912D0145
:1041300090912E010E94DB060F5F41CF21E25B9A36
:10414000F21214C080912B0190912C010E94DB0689
:104150005B9880912B0190912C01FC01AE9EC001D7
:10416000AF9E900D11240E94DB0610C080912D019E
:1041700090912E010E94DB065B980FE180912D014A
:1041800090912E010E94DB060150C1F71F5FEFCE18
:104190008091C302882341F08091150481110FC0E2
:1041A00086E30E94920318C08091C202882351F0D6
:1041B0001092C2020E94941681E080936A020E94CB
:1041C00003040AC08091C102882321F01092C10229
:1041D00067DB02C00E94340E769889E60E944D0784
:1041E00083E70E944D0711E01F150CF088CEFE01F9
:1041F000E10FF11D17FDFA958181803319F08133AC
:1042000009F086E40E944D071F5FEECF8237B9F4B4
:1042100080916A02882329F081E08093C202109283
:104220006A028091B602882329F081E08093C1025E
:104230001092B602DBDD81E08093C3025BC086365C
:1042400051F58A81803351F480E18093260180EB1F
:104250008093270181E78093280107C043E066E24D
:1042600071E0CE0102960E94140889E60E944D0773
:1042700086E60E944D078AE30E944D078091260141
:104280000E941008809127010E9410088091280147
:104290000E94100834CE883729F58091C202882305
:1042A00041F01092C2020E94941681E080936A024B
:1042B00010C08091C102882321F01092C102F0DA6F
:1042C0000EC082E090E00E9496038091150488233E
:1042D00019F00E94030403C086E30E949203109227
:1042E000C30208C0833631F46DE271E0CE0101965D
:1042F0000E944408CDB7DEB7EAE00C947333A1E026
:10430000B0E0E5E8F1E20C9451337C01FC018181DD
:10431000833709F0A3C1198287E090E00E948633B9
:104320008C0141E0BE016F5F7F4FC70102960E9482
:1043300014088981F801808341E0BE016F5F7F4FDF
:10434000C70104960E9414088981807FD82EF80145
:10435000818341E0BE016F5F7F4FC70106960E94D7
:1043600014088981F801828341E0BE016F5F7F4FAD
:10437000C70108960E9414088981F801838341E0EF
:10438000BE016F5F7F4FC7010A960E9414088981A2
:10439000F801868341E0BE016F5F7F4FC7010C9635
:1043A0000E9414088981F801858341E0BE016F5F96
:1043B0007F4FC7010E960E9414088981F8018483FB
:1043C0003801F7E06F0E711CF80180E09191292F00
:1043D00022952F7092278927E615F705B9F78F7078
:1043E0008D29F801818387E090E00E9486337C016B
:1043F00087E0F801D70101900D928A95E1F79801C5
:104400002A5F3F4FF801DF01319611969C91119779
:104410008C9189278083E217F307A9F7769A809118
:10442000C602811160C080916A02882329F081E070
:104430008093C50210926A028091B602882329F007
:1044400081E08093C4021092B602EA98209A289ADA
:104450008EE190E00E94DB0628988EE190E00E94B9
:10446000DB06289A8DE290E00E94DB0680E30E9442
:10447000920384E690E00E94DB06289880E40E9484
:104480001203E7E8CE2EE3E0DE2EF0EBAF2EF3E0F2
:10449000BF2EF60184910E941203FFEFCF1ADF0AAC
:1044A000AC14BD04B1F7289A28988EE70E94120335
:1044B0008BE290E06C012FEFC21AD20A0E947608BC
:1044C0000E941203C60183339105A1F7289A83E362
:1044D0000E94920381E00E94E00681E080930C0438
:1044E00083E00E94E00686E30E9492038AE30E9432
:1044F00092038BE30E9492030E94F1035B9A87EC84
:1045000094E20E94DB065B9889E50E94E00685E361
:1045100092E00E94DB06512C8091330190E0252D22
:10452000052C000C330B281739070CF056C055200A
:1045300019F077E0C72E02C062E0C62ED12C5B9A3C
:1045400086EF99E00E94DB065B9886EF99E00E9477
:10455000DB06D394CD10F3CF5B9A8CEF92E10E94EF
:10456000DB065B9880912F01909130010E94DB0661
:104570006801F60181906F0148E0442E50E8A52EB5
:10458000B12C912CC4018A219B21892B49F45B9A7F
:1045900080912F01909130010E94DB065B9808C04A
:1045A0005B9880912F01909130010E94DB065B9A0D
:1045B00080912F01909130010E94DB06B694A79460
:1045C0004A944110DFCFC614D70499F65B9880E077
:1045D00090E00E94DB0653949FCF8091C60288230F
:1045E00041F08091150481110FC086E30E9492036F
:1045F00018C08091C502882351F01092C5020E9414
:10460000941681E080936A020E9403040AC080919C
:10461000C402882321F01092C40242D902C00E9431
:10462000340E769889E50E944D0783E70E944D0776
:1046300067015701F7E0AF0EB11CF60181916F01E0
:104640000E941008AC14BD04C1F70E949907C7016D
:104650000E941E34C8010E941E346EC08237A9F425
:1046600063E371E0C70102960E94440889E50E9455
:104670004D0782E70E944D078AE30E944D07809113
:10468000330140E260E090E02CC0843779F5F70117
:104690008281803339F488ED94E0909332018093E5
:1046A000310106C061E371E0C70102960E9444082F
:1046B00080913101909132019695879590933001C8
:1046C00080932F0189E50E944D0784E70E944D07E2
:1046D0008AE30E944D0740E266E0809131019091AB
:1046E00032010E949D070E94990726C0883721F554
:1046F0008091C502882341F01092C5020E94941651
:1047000081E080936A0210C08091C402882321F066
:104710001092C402C5D80EC082E090E00E949603B9
:1047200080911504882319F00E94030403C086E3D6
:104730000E9492031092C6022196E0E10C946D3320
:104740001092C0041092820383E08093CC028FEF1A
:104750008093D5040895EDECF2E02081211105C08D
:10476000892BB1F080E090E00895B3E0EB37FB07D0
:10477000B8F7009751F04181DC013C91431305C02B
:10478000428111963C91431751F0E20FF11DE5CFA4
:1047900033E0EB37F30719F010F0EBE7F3E0CF016C
:1047A000089524E0829FC0011124FC01EA52FB4FCE
:1047B00080818F3F91F08093C70281818093C802EE
:1047C00082818093C90283818093CA0221E04CE0F8
:1047D00064E087EC92E00C94D60A08958CE793E0AD
:1047E000BADF009799F02091CC02FC0130812317A9
:1047F00068F4E20FF11D808180937E0389E7809346
:104800007F0381818093800381E0089580E0089593
:104810000F931F93CF93DF932091150426FF16C0AB
:104820008C0184E50E944D07E8010B5F1F4F8991C1
:104830000E941008C017D107D1F78091150485FF99
:1048400003C08AEF0E9410080E949907DF91CF9160
:104850001F910F91089586E30E94920380917E0339
:10486000833511F08BE401C08BE90E94E00621E062
:104870004CE065E08CE793E00E94D60A0E940304B6
:104880008CE793E0C5CFE7DF80917E03893631F076
:1048900081E080937B0389E28093D5040895CF93D0
:1048A00085E390E00E9476088093A60486E390E07A
:1048B0000E9476088093D404E4ECF4E0CFEFC08348
:1048C000C283C483C683C087C287C487C68738DFD4
:1048D0001092CD0281E08093A504A6EDB4E0CC93C4
:1048E000E8EAF4E08FEF9FEF9183808313821282D6
:1048F000158214821496CC9314979783868311861D
:104900001086138612861896CC93189795878487FD
:1049100017861686118A108A1C96CC93938B828BED
:10492000158A148A178A168ACF910895ABE0B0E0F1
:10493000ECE9F4E20C9455337C018C010F5F1F4FBE
:1049400045E0BE016F5F7F4FC8010E9414088430AC
:1049500008F0E3C099819130A9F4833061F46A8151
:1049600085E390E00E9471086B8186E390E00E94ED
:10497000710895DFFDC18091A6040E941008809106
:10498000D40493C0923009F051C0813039F081E0F5
:104990009A81913009F080E0E82E02C0EE24E39481
:1049A0008091CD02811104C080EB93E00E948C07BE
:1049B0000DEC12E0F8018081882309F4ABC0F3E02C
:1049C0000B371F0708F0A6C022E00D3C120719F0B4
:1049D00080E20E944D07F80181810E941008F801D1
:1049E00082810E941008E11005C0F8018081080F43
:1049F000111DE0CF8AE30E944D0783E0F82EF801F5
:104A00008081F81690F7F3E0FF1528F4F0FE03C05C
:104A10008CE20E944D07DD24D394DF0CF801EF0DEA
:104A2000F11D80810E941008FD2CE9CF933049F4DC
:104A300080E090E090DE8D5C92409EEA981B892F8A
:104A400034C0903139F504EC14E0E12CF12CF8017C
:104A500080818F3FA1F0FF2019F080E20E944D0776
:104A60008E2D0E9410088AE30E944D07F801808174
:104A70000E941008F80181810E941008F3940E5FD3
:104A80001F4FE394F8E0EF12E2CFF11043C08EEB3A
:104A900093E03EC0913161F48091C2049091C304CF
:104AA0006DE770E00E942233862F0E94100832C00A
:104AB000923181F506ED14E0E12CF12CF8018081B2
:104AC0008F3FE1F0FF2019F080E20E944D078E2D0C
:104AD0000E9410088AE30E944D07F80180810E941D
:104AE0001008F80181810E941008F80182810E945B
:104AF0001008F80183810E941008F3940C5F1F4F87
:104B0000E394F4E0EF12DACFF11004C08AEB93E003
:104B10000E948C070E9499072BC144E0BE01695F87
:104B20007F4FC8010E9414082F81293608F480C0E5
:104B30005A85388549855C3009F052C0A6EDB4E04D
:104B400080E090E0FD01E65DF4405C91251322C019
:104B500011966C91119763131DC012966C91129768
:104B6000641318C0EA52FB4F2CE023839C01220FF0
:104B7000331F820F931FFC01EE0FFF1FE855FB4F01
:104B800011821082880F991FFC01E655FB4F11829C
:104B90001082D0C05F3FE9F4EA52FB4F208331839B
:104BA00042832CE023839C01220F331F820F931F2B
:104BB000FC01EE0FFF1FE855FB4F11821082880F9A
:104BC000991FFC01E655FB4F118210821092A5043B
:104BD000B1C0019614968430910509F0B3CFC8C0D6
:104BE000E6EDF4E080E090E0BF01665D7440A081F6
:104BF0002A1318C0A181A31315C0A281A41312C047
:104C0000FB01EA52FB4F5383FC01EE0FFF1FE80F3D
:104C1000F91FEE0FFF1FE655FB4F81E090E09183F7
:104C20008083A6C00196349684309105E9F6A0C031
:104C3000E9812091A604E217C0F1822F90E0079647
:104C40004E2F50E08417950784F19A818091D40407
:104C500098132BC09C819F3231F442E06CE0C70175
:104C60000E94430B85C08D819C32B9F48093C104AE
:104C700021E030E03093C3042093C2042091120459
:104C800030911304A90164E0869F400D511D112449
:104C900050931304409312046BC0E21BEE0FF0E03C
:104CA000EC53FB4F9083818363C080E090E053DD41
:104CB0006C01F80101900020E9F73197E01BF10B3E
:104CC000F695E79501E00E0FC601800F911D8D5CF2
:104CD00092408F3A91050CF047C0F60100835601CF
:104CE00011E0812F880F81501017D0F44501FFEF9C
:104CF0008F1A9F0A41E0B4019701280F311DC901A5
:104D00000E941408133048F010FD07C0F50180819F
:104D1000843619F481818093A7041F5F5401E1CF89
:104D2000FBE7CF16F3E0DF0618F5F601E10FF11D02
:104D300010821EC022E04CE064E0CE0107960E9483
:104D4000D60A8FE08A8722E04CE064E0CE01079625
:104D50000E94D60A82E08A8722E04CE064E0CE011D
:104D600007960E94D60A04C084EB93E00E948C0749
:104D70002B96ECE00C9471330F931F93CF93DF933A
:104D80009091A50491114EC093E0899FE0011124F8
:104D9000FE01EE0FFF1FE855FB4F94E0899FD00105
:104DA0001124AA52BB4F12969C91977040E850E094
:104DB000491B51099AEF949F9001959F300D112442
:104DC0003595279535952795318320838E01000FE2
:104DD000111F04551B4FF801208131812F5F3F4F78
:104DE00031832083CC0FDD1FC655DB4F48815981AD
:104DF0004115510529F424303105A1F4D2DC0FC04E
:104E00004130510531F4CDDC82E090E09983888314
:104E100009C04230510531F4C4DC19821882F8010E
:104E200011821082DF91CF911F910F910895A6E01A
:104E3000B0E0EDE1F7E20C945B338091D4048A8317
:104E40001B829091C104992341F0933019F08DE7B2
:104E500090E010C087E791E00DC0877090E08A5124
:104E60009F4F4DE7489F9001499F300D1124C90184
:104E7000959587959093C3048093C20484ECE82EA3
:104E800084E0F82E10E00CE2F70190819F3FC1F022
:104E90008091A604810F89838091C104882311F039
:104EA0000C8303C09C83F70181818D8321E04CE05A
:104EB00065E0CE0101960E94D60ACE010196A8DCDB
:104EC0001F5FF2E0EF0EF11C1830F1F68091C10483
:104ED000882341F0833019F41092C10403C082503A
:104EE0008093C1042696E6E00C94773380917B038F
:104EF000882351F0B0DC89E28093D50480917B0354
:104F0000815080937B0308951BCCFF920F931F93D6
:104F1000CF93DF93FC01F0800181C281D3811481A2
:104F20008FE58093D50410927B038091A6048111B4
:104F300005C08091D404882309F4A5C080917C0326
:104F4000F81204C080917D03081729F0F9DBF09274
:104F50007C0300937D038091C0048F3F09F493C0CC
:104F6000C0937E03D0937F0310938003CC23F1F092
:104F700081111CC08091A604181761F0143651F0FD
:104F80008DEA8C0F823010F0CD3739F48FEF80939B
:104F9000C00479C0C43509F476C08D2F807F803677
:104FA00009F071C0D067D0937F036CC017DC81110A
:104FB00005C08091C004882309F465C080918203F4
:104FC000811107C0E091C004F0E0EE53FC4FE49182
:104FD00001C0E82FE33541F4C43531F49091C004A9
:104FE0009E5F9093C00404C0EC1711F0A9DB4BC086
:104FF000882369F08091CC028E5F8093CC02EEDB37
:1050000081110EC08091C0048E5F8093C004809196
:10501000C004E82FF0E0ED53FC4FC491CF3F59F4AA
:1050200080917E0380938203843661F58091A7048A
:105030008093800327C0C0937E0397E790937F03FC
:105040009091A604909380038E5F8093C004109289
:1050500082038E30B1F48CE793E07DDBFC01892B79
:1050600079F0A081B0E08BE793E08A1B9B0BAE0F39
:10507000BF1FE817F90718F42D912193FACF10827A
:105080005FDBC11100DCCDB7DEB7E5E00C9478330F
:105090000F931F93CF93DF93EC0100E0802F90E0FC
:1050A0009C01220F331F280F391FF901E054FF4FD5
:1050B0001491F901EF53FF4F25913491112399F089
:1050C000209739F480E20E944D07812F0E944D07FE
:1050D00008C08881181305C0CE01F901099581E047
:1050E00003C00F5FDBCF80E0DF91CF911F910F9165
:1050F0000895CF93C091C0018093C00180916B054A
:10510000882309F43DC089E695E00E94B809209102
:105110008303309184038A3011F08D3011F521150D
:10512000310561F3F901EB57FC4F108285E893E0FC
:10513000AFDF811111C088EE93E00E948C0785E8F3
:1051400093E00E94810780ED93E00E948C0780E04D
:1051500090E09EDF0E9499071092840310928303CF
:10516000CDCF2038310550F6A9014F5F5F4F5093E6
:10517000840340938303F901EB57FC4F8083BECF38
:10518000C093C001CF910895E4E6F0E080818B7F69
:105190008083299A84B1876084B9239880E58CBD87
:1051A0008DB581608DBD0895209178093091790980
:1051B0002115310521F4209136013091370180917C
:1051C000340190913501009741F48DB79EB740911D
:1051D000380150913901841B950B2817390718F4B1
:1051E000821B930B089580E090E0089582E40E9472
:1051F0004D0740E265E080917809909179090E941D
:105200009D070E94990783E50E944D0740E265E0F3
:1052100080913601909137010E949D070E94990765
:1052200085E40E944D0740E265E080913401909151
:1052300035010E949D070E94990786E40E944D0750
:10524000B3DF40E265E00E949D070C949907A2E05D
:10525000B0E0EDE2F9E20C945F33E1EFF5E089EFC5
:1052600095E02091F10021938E179F07D1F780914F
:10527000F1059091F205492F50E04A30510508F0B0
:1052800022C1FA01EA5AFF4F0C944933803879F071
:10529000823809F018C18091F5058093E90080916A
:1052A000EB0085FB882780F91092E90006C0809109
:1052B000EC059091ED05911182609091E800977F47
:1052C0009093E8008093F1001092F1008091E80043
:1052D000982F9E7F9093E8008F778093E8008091CD
:1052E000E80082FDB1C08091F0058111F8CFDCC0EB
:1052F000282F2D7F09F0E7C0882319F0823061F054
:1053000036C08091F305813009F0CEC0933009F0AA
:1053100080E08093ED052BC08091F305811127C0BB
:105320008091F505877009F4BFC08093E900209152
:10533000EB0020FF1CC09130A9F49091EB0090612C
:105340009093EB0021E030E0A90102C0440F551F0B
:105350008A95E2F74093EA001092EA008091EB0010
:10536000886003C08091EB0080628093EB00109214
:10537000E9008091E800877F8093E8008091E80051
:10538000982F9E7F65C081119EC08091F3059091FA
:10539000E800977F9093E8009091E800292F2E7FF6
:1053A0002093E8009F779093E8009091E80090FDAB
:1053B00005C09091F0059111F8CF76C08F77982FA6
:1053C00090689093E300882309F46EC083E0809393
:1053D000F0056AC08058823008F075C0AE014F5F9A
:1053E0005F4F6091F5058091F3059091F4050E945F
:1053F000D802BC01892B09F457C09091E800977F2F
:105400009093E80089819A8130D11EC0803809F0DC
:105410005AC08091E800877F8093E8008091EE0574
:105420008093F1008091E800982F9E7F9093E80090
:105430008F778093E8008091E80082FD05C080911D
:10544000F0058111F8CF30C08091E800982F9B7F44
:105450009093E8008F778093E80026C0811133C0D5
:105460008091F3059091F40599270297ECF48091CF
:10547000E800877F8093E8008091F3058093EE0534
:105480008091E800982F9E7F9093E8008F7780931B
:10549000E8008091EE05882311F084E001C083E0EC
:1054A0008093F0050E943A058091E80083FF0EC0CA
:1054B0008091EB0080628093EB008091E800877F11
:1054C0008093E80003C00E945205EECF2296E2E0EE
:1054D0000C947B338093E900EBEEF0E080818160F7
:1054E0008083EDEEF0E010826093EC0040838091C9
:1054F000EE00881F8827881F08951092F40080E02E
:105500008093E9001092F0001092E8009091ED0075
:105510009D7F9093ED009091EB009E7F9093EB0028
:105520008F5F873069F708958091F10587FF12C07A
:105530008091E80082FD05C08091F0058111F8CFCF
:1055400016C08091E800982F9B7F0CC08091F005D9
:10555000882369F08091E80080FFF8CF8091E8000F
:10556000982F9E7F9093E8008F778093E8000895AE
:1055700095E62091EC00822F817020FF05C080917C
:10558000E80080FF05C019C02091E80022FD1AC084
:105590008091F005882399F08091EB0085FD11C082
:1055A0008091E10082FFE5CF8091E1008B7F8093C5
:1055B000E1009150F1F683E0089580E0089582E0E3
:1055C000089581E008952091F7053091F80562175C
:1055D000730708F49B0150E021153105A9F14091B2
:1055E000E80043FD3EC04091E80042FD34C04091D8
:1055F000F0054423C1F14091E80040FFEDCFFC01EC
:10560000CF012115310569F04091F2005091F3006E
:105610004830510530F481918093F10021503109D7
:10562000EFCF6091F2007091F30051E068307105A6
:1056300009F050E04091E800642F6E7F6093E8002D
:105640004F774093E800C8CF5111C9CF04C0809173
:10565000F005882341F08091E80082FFF8CF80E0D8
:10566000089581E0089582E008952091F705309132
:10567000F8056217730708F49B0150E02115310506
:10568000B1F14091E80043FD3FC04091E80042FD88
:1056900035C04091F0054423C9F14091E80040FF36
:1056A000EDCFFC01CF012115310571F04091F200E1
:1056B0005091F3004830510538F484918093F10003
:1056C000215031093196EECF6091F2007091F300D4
:1056D00051E06830710509F050E04091E800642F16
:1056E0006E7F6093E8004F774093E800C7CF511179
:1056F000C8CF04C08091F005882341F08091E80074
:1057000082FFF8CF80E0089581E0089582E0089557
:105710009C016115710551F18091E80083FD2CC059
:105720008091F005882351F18091E80082FFF1CF4C
:105730008091F2009091F300892B51F02F5F3F4F41
:105740008091F100F901319780836150710981F7EF
:105750009091E800892F8B7F8093E8009F7790934A
:10576000E800D7CF8091F005882341F08091E800D0
:1057700080FFF8CF80E0089581E0089582E00895E9
:1057800067D06ED01092F0051092EE051092ED05E4
:105790001092EC058AE482BF19BC89B5826089BD8C
:1057A00009B400FEFDCF8091D800982F9F77909389
:1057B000D80080688093D8008091D7008160809362
:1057C000D7008091D8008F7D8093D8008091E00031
:1057D0008B7F8093E0008091E0008E7F8093E000DB
:1057E0008091E1008E7F8093E1008091E2008160F2
:1057F0008093E2008091E100877F8093E1008091B7
:10580000E20088608093E2008091D80081608093FC
:10581000D8000895B5DFE8EDF0E0808180618083F5
:1058200081E08093EF0578940895AADFE0EEF0E040
:10583000808181608083E8EDF0E080818F778083D4
:1058400019BC80818F7E80831092EF0508950895A2
:10585000E8EDF0E080818E7F80831092E200089571
:105860001092DA001092E10008951F920F920FB685
:105870000F9211242F933F934F935F936F937F93D6
:105880008F939F93AF93BF93EF93FF938091DA0031
:1058900080FF15C08091D80080FF11C08091DA0090
:1058A0008E7F8093DA008091D90080FF05C081E06F
:1058B0008093F005CCDF03C01092F005C8DF809123
:1058C000E10080FF1DC08091E20080FF19C080913F
:1058D000E1008E7F8093E1008091E2008E7F8093D3
:1058E000E2008091E20080618093E2008091D80024
:1058F00080628093D80019BC85E08093F005A7DF13
:105900008091E10084FF29C08091E20084FF25C0DE
:1059100019BC89B5826089BD09B400FEFDCF8091B4
:10592000D8008F7D8093D8008091E1008F7E809396
:10593000E1008091E2008F7E8093E2008091E2009E
:1059400081608093E2008091EE05811102C083E0C6
:1059500001C084E08093F0057ADF8091E10083FF4D
:1059600023C08091E20083FF1FC08091E100877F08
:105970008093E10082E08093F0051092EE05809123
:10598000E1008E7F8093E1008091E2008E7F809322
:10599000E2008091E20080618093E200AEDD42E0AF
:1059A00060E080E097DD53DFFF91EF91BF91AF9111
:1059B0009F918F917F916F915F914F913F912F9127
:1059C0000F900FBE0F901F901895CF938091F00508
:1059D000882359F0C091E900C7701092E9008091C6
:1059E000E80083FD34DCC093E900CF910895A0E086
:1059F000B0E0ECEFFCE25CC6B82EC92ED62E7A01E0
:105A0000890128988FEF0E941203CB2DDC2DCE0147
:105A10008D0D911D6C01CC15DD0529F080E00E94F3
:105A200012038993F8CFE114F10469F080E00E9439
:105A30001203F70180830115110529F080E00E940F
:105A40001203F8018083289ACDB7DEB7E9E04CC68F
:105A5000CF93882331F01092060686E30E949203CA
:105A600007C085E30E9481038D30A9F7C0E03DC0E7
:105A700085E30E948103C82F8130D1F78BE30E9418
:105A800092038AE30E9492031092F9051092FB059B
:105A90001092FA051092FD051092FC058AE297E03B
:105AA0009093FF058093FE0510920006C0930106B7
:105AB0001092020680910604809303061092040659
:105AC0001092050660E083E00E94880362E088E0AF
:105AD0000E94880384E30E94920385E30E9481036D
